:080E4D0090003DEEF0A3EFF070
:100E550090003DE0FEA3E0FFD3EF9400EE94004048
:100E65004290004074C7F0900040E0FFEFD394003B
:100E7500402190003F7401F090003FE0FFEFD394D4
:100E850000400890003FE014F080ED900040E01431
:100E9500F080D490003EE024FFF090003DE034FF68
:030EA500F080AD2D
:010EA8002227
:1011E000900066EFF0C2A7C2A6C2A5900066E0FF1D
:1011F0008F807F017E00120E4DD2A77F057E0012E8
:051200000E4DC2A72203
:10120500900067EFF0C2A7D2A6C2A5900067E0FFE5
:101215008F807F017E00120E4DD2A77F057E0012C2
:051225000E4DC2A722DE
:10092200900041EFF0900042EBF0A3EAF0A3E9F06F
:10093200900041E0FFEFD3940F5041900041E0FF5F
:10094200EF540FFFEF2480FF1211E0900042E0FB12
:10095200A3E0FAA3E0F91202D0FFEF605F90004239
:10096200E0FBA3E0FAA3E0F91202D0FF1212059015
:100972000043E475F00112036E80D022900041E042
:10098200FFEF540FFFEF24C0FF1211E0900042E08E
:10099200FBA3E0FAA3E0F91202D0FFEF601E900081
:1009A20042E0FBA3E0FAA3E0F91202D0FF12120523
:0D09B200900043E475F00112036E80D02226
:101282007F381211E07F0C1211E07F061211E07F0D
:0A129200011211E07F801211E0222A
:100869002050656368696E20536369656E6365200E
:10087900002020202057454C434F4D452120202062
:100889002000556E6C6F636B003C004368616E67B6
:10089900652050617373776F7264002000656E6123
:1008A900626C652064746D6D00656E61626C65646F
:1008B9000064697361626C656400506173732057E9
:1008C9006F72643A2020002020202057454C434F66
:1008D9004D4521004572726F722030312100496EF9
:1008E9007075742050617373576F72643A00457262
:1008F900726F72203031004E6577205061737357E3
:100909006F72643A002020202020204F4B2100459F
:0909190072726F7220303221006D
:100FF700410004064A001F08080808080800000006
:101007000041000600410005014100140041001C99
:101017000042001D00004200170000410016004179
:1010270000120042001900004200000001420002C5
:021037000000B7
:10045A00900054E4F0A3E4F07F011211E07FE87EFB
:10046A00031212671212827FE87E0312126790004B
:10047A0013E4F090001BE4F0900015E4F07F0912F9
:10048A001160EF640160077D007F001211BA120645
:10049A00B81212FE1212B6900012E0FFEFF4FF90AB
:1004AA000012E0FEEF6E703D900019E4F0A3E4F054
:1004BA00900019E0FEA3E0FFC3EF9414EE64809469
:1004CA00805022B2A27FE87E03121267B2A27FE8AE
:1004DA007E0312126790001AE004F0700690001969
:1004EA00E004F080CB120794900029EFF0900013FB
:1004FA00E0FFEF12039A051900051E010523020504
:10050A002803052D040532050537060000053A12B1
:10051A00118E801C1210BE80171200268012121231
:10052A009C800D1212CC80081210F68003121082E1
:10053A007F0A121160EF640160030204A190005463
:10054A00E4F0A3E4F0900054E0FEA3E0FFC3EF94CC
:10055A0006EE648094805033900054E0FEA3E0FFDE
:10056A00EF2402FF121160900054E0FCA3E0FD7436
:10057A001F2DF58274003CF583EFF0900055E004DE
:10058A00F07006900054E004F080BA7D067F0112F4
:10059A0011BA7F647E001212677D007F0A1211BAB7
:0305AA000204A1A7
:0105AD00222B
:10118E001212827BFF7A0879697F001209227BFF97
:10119E007A08797A7F10120922120794EFB4FF0BA6
:0C11AE00120D819000137401F080EE22FD
:1010BE007F011211E07BFF7A08798B7F00120922E3
:1010CE007BFF7A0879927F0F1209227BFF7A0879CB
:1010DE00947F101209227BFF7A0879A47F1F1209D0
:0810EE00229000137402F022AD
:10002600900045E4F0A3E4F0900047E4F0A3E4F088
:10003600900029E0FFEF640C700302022B90002968
:10004600E0FFEFB41029900001E024FFF0900000DB
:10005600E034FFF09000147401F0900000E0FEA37D
:10006600E0FFEF4E7009900000E4F0A37403F090F7
:100076000029E0FFEFB4132B900001E004F07006B6
:10008600900000E004F09000147401F0900000E08D
:10009600FEA3E0FFEF64044E7009900000E4F0A3B5
:1000A6007401F0900029E0FFEF64106016900029BB
:1000B600E0FFEF6413600C900047E4F0A37401F0D6
:1000C6000201A9900000E0FEA3E0FFEF8EF012030C
:1000D600C000E7000101290002016A0003000001D7
:1000E600A9900014E0FFEFB401057F011211E07B37
:1000F600FF7A08798B7F001209227BFF7A087992B2
:100106007F0F1209227BFF7A0879947F1012092249
:100116007BFF7A0879A47F1F120922900014E4F06D
:100126000201A9900014E0FFEFB401057F0112114E
:10013600E07BFF7A08798B7F001209227BFF7A0821
:1001460079A47F0F1209227BFF7A0879947F101217
:1001560009227BFF7A0879927F1F120922900014E8
:10016600E4F0803F900014E0FFEFB401057F011238
:1001760011E07BFF7A0879947F001209227BFF7ACF
:100186000879A47F0F1209227BFF7A0879A67F10CF
:100196001209227BFF7A0879927F1F1209229000AA
:1001A60014E4F0900047E0FEA3E0FFEF64014E6028
:1001B600030202CF900018E004F07006900017E0EA
:1001C60004F0900017E0FEA3E0FFEF64887003EEF2
:1001D600641360030202CF900017E4F0A3E4F090EA
:1001E6000013E4F0900045E4F0A3E4F0900045E04D
:1001F600FEA3E0FFC3EF9414EE64809480400302F4
:1002060002CFB2A27FE87E03121267B2A27FB87E47
:100216000B121267900046E004F07006900045E06D
:1002260004F080C822900000E0FEA3E0FFEF640126
:100236004E700F9000137403F0900000E4F0A37466
:1002460001F0900000E0FEA3E0FFEF64024E700FA5
:100256009000137405F0900000E4F0A37401F09090
:100266000000E0FEA3E0FFEF64034E705C90000523
:10027600E0FFEFF4FF900005EFF0900005E0FFEFE0
:10028600B40104D28C8002C28C900000E4F0A37406
:1002960001F07F011211E0308C147BFF7A0879B2ED
:1002A6007F001209227F107E271212678015208C8C
:1002B600127BFF7A0879BA7F001209227F107E2707
:0902C6001212679000137401F09C
:0102CF00220C
:10129C009000137404F0900011E4F01212827BFFA2
:0A12AC007A0879C37F00120922229C
:1012CC00C2021205AE3001069000137406F0C20182
:0112DC0022EF
:1010F60090001BE0FFEF12039A1115001119011160
:101106001D021121031125041129050000112C12BD
:10111600124B221212DD2212130E22120F0322127A
:07112600122A22120A5B22CB
:10108200120D0F3000221212827BFF7A0879D07F74
:1010920000120922C2A27F607EEA1212677F607E7E
:1010A200EA121267D2A2800E1212827BFF7A0879AC
:0C10B200DD7F00120922900013E4F02200
:10124B007F011211E07BFF7A0879E77F00120922F8
:0C125B0090001B7401F0900011E4F022E0
:1012DD00C2021205AE30010890001B7402F0C2016B
:0112ED0022DE
:0A130E00120D0F90001B7403F02273
:100F0300200037900015E0FFEFC3940350219000B9
:100F130015E004F01212827BFF7A0879F77F001242
:100F230009227F207E4E12126790001BE4F022906C
:100F33000015E4F0900013E4F0221212827BFF7A92
:100F43000979007F00120922900011E4F090001B40
:040F53007404F02210
:10122A00D2021205AE30011890001B7405F0C201FB
:10123A007F011211E07BFF7A09790E7F00120922E1
:01124A002281
:100A5B00900011E0FF900004EFF0900006E0FD7FA6
:100A6B00001211BA7F647E00121267900004E0FD41
:100A7B007F011211BA7F647E00121267900069E445
:100A8B00F0900004E0FF900069E0FEEEC39F504E33
:100A9B00900069E0FF74072FF582E43400F583E0E2
:100AAB00FF900069E0FE741F2EF582E43400F5839D
:100ABB00EFF0900069E0FFEF2402FF900069E0FE89
:100ACB0074072EF582E43400F583E0FD1211BA7F32
:100ADB00647E00121267900069E004F080A390001E
:080AEB001BE4F0900013E4F09D
:010AF30022E0
:1006B8007F00121160900006EFF0900006E0FFEF57
:1006C800707C7D017F091211BA9000067401F07DDB
:1006D800017F001211BA7F647E001212677D067FC7
:1006E800011211BA7F647E0012126790006AE4F06A
:1006F800900004E0FF90006AE0FEEEC39F503F9038
:10070800006AE0FFEF2402FF7D081211BA90006A28
:10071800E0FF74072FF582E43400F583E0FF9000D2
:100728006AE0FE741F2EF582E43400F583EFF07F53
:10073800647E0012126790006AE004F080B27F00C5
:10074800121160900006EFF07F0112116090000412
:10075800EFF090006AE4F0900004E0FF90006AE097
:10076800FEEEC39F502590006AE0FFEF2402FF12BF
:10077800116090006AE0FE741F2EF582E43400F5E3
:0B07880083EFF090006AE004F080CCEA
:010793002243
:1005AE00900029E0FFEF640C700302069090002982
:1005BE00E0FFEFC3940A505F900029E0FF90001116
:1005CE00E0FE74072EF582E43400F583EFF0900020
:1005DE0011E004F07FC01211E090006BE4F0900087
:1005EE0011E0FF90006BE0FEEEC39F502A20020741
:1005FE007F2A121205801890006BE0FF74072FF50A
:10060E0082E43400F583E0FFEF2430FF12120590F0
:10061E00006BE004F080C7900029E0FFEF640A60F1
:10062E00030206B7900011E0FFEF6008900011E0A2
:10063E0014F08005900013E4F07FC01211E09000DA
:10064E006BE4F0900011E0FF90006BE0FEEEC39FB4
:10065E00502A2002077F2A121205801890006BE0A4
:10066E00FF74072FF582E43400F583E0FFEF2430AA
:10067E00FF12120590006BE004F080C77F2012126B
:10068E000522900011E0FFEF701D900013E4F07F43
:10069E00011211E07BFF7A0979187F001209227F7F
:0906AE00107E2712126722D2010E
:0106B7002220
:100D0F00900057E4F0900011E0FF900004E0FEEE39
:100D1F006F705C900056E4F0900004E0FF90005676
:100D2F00E0FEEEC39F504A900056E0FF74072FF588
:100D3F0082E43400F583E0FF900056E0FE741F2E2E
:100D4F00F582E43400F583E0FEEE6F6005C2002209
:100D5F008002D200900056E0FF74072FF582E43432
:100D6F0000F58374FFF0900056E004F080AA22C2D1
:010D7F000073
:010D80002250
:100D810090001CE0FFEF640170607B017A00791F25
:100D9100900016E0FF900035EFF07D06120DEC7B20
:100DA100017A00791F1209BF90001DE4F0A3E4F05D
:100DB10090001DE0FEA3E0FFC3EF9414EE64809465
:100DC100805022B2A37FE87E03121267B2A37FE8AC
:100DD1007E0312126790001EE004F0700690001D61
:0B0DE100E004F080CB90001CE4F02246
:03000B00020C9153
:0F0C9100C0E0C083C082C0D075D000C006C007CD
:100CA000758C3C758AB0900003E004F070069000EB
:100CB00002E004F0900016E004F0900002E0FEA3D1
:100CC000E0FFEF64207003EE641C7036900002E4D5
:100CD000F0A3E4F0900013E0FFEF6013900013E046
:100CE000FFEF64016009900013E0FFEFB40213907E
:100CF0000012E0FFEFF4FF900012EFF090001C7480
:020D000001F000
:0D0D0200D007D006D0D0D082D083D0E03210
:0410390041006D0005
:10126700900058EEF0A3EFF090005874FF75F0FF70
:0B127700120384AFF0FEEF4E70EE2279
:1007940090006CE4F075900FE590640F700302080C
:1007A4005D7FE87E03121267E590640F7003020810
:1007B4006375900FAF90EF12039A07CE0707D60B1D
:1007C40007DE0D07E60E000007EC90006D7401F0E3
:1007D400801690006D7402F0800E90006D7403F02A
:1007E400800690006D740DF07590F0AF90EF1203D9
:1007F4009A0805700811B0081AD00823E000000810
:100804003990006DE0FF90006DEFF0802890006D4E
:10081400E02403F0801F90006DE02406F080169021
:10082400006DE0FFEFB4020690006D74F7F09000E5
:100834006DE02409F090006CE0FFC3EF648094B293
:10084400501DE59064F060177FE87E0312126790F4
:10085400006CE004F080DE800690006D74FFF09080
:04086400006DE0FF44
:01086800226D
:10112D0090005B7401F090005BE0FFEFD394004002
:10113D002190005A7402F090005AE0FFEFD3940012
:10114D00400890005AE014F080ED90005BE014F040
:02115D0080D43C
:01115F00226D
:10000E00D2A012112DD2A112112DC2A012112DC2E9
:05001E00A112112D22CA
:1012EE00C2A012112DD2A112112DD2A012112D2297
:050C1000900051EFF01F
:100C1500900052E4F0900053E4F0900052E4F0901C
:100C25000052E0FFEFC394085035900051E0FFEF0C
:100C3500C41313135401FFEF24FF92A0900051E059
:100C4500FFEF25E0FF900051EFF012112DD2A11218
:100C5500112DC2A112112D900052E004F080C0D2D6
:100C6500A012112DD2A130A01B900053E004F090EA
:100C75000053E0FFEFD394C840ECC2A112112D7FC1
:0B0C8500002280E2C2A112112D7F01AD
:010C90002241
:100EA90090005CE4F090005DE4F0D2A012112D9066
:100EB900005CE4F090005CE0FFEFC394085035D289
:100EC900A112112D90005DE0FFEF25E0FF90005D7C
:100ED900EFF090005DE0FFA2A0E433FEEF4EFF903B
:100EE900005DEFF012112DC2A112112D90005CE0EE
:090EF90004F080C090005DE0FFF0
:010F020022CC
:1011BA0090005EEFF090005FEDF012000E7FA0123B
:1011CA000C1090005EE0FF120C1090005FE0FF121E
:0611DA000C101212EE22BF
:05116000900060EFF0BB
:1011650012000E7FA0120C10900060E0FF120C1010
:1011750012000E7FA1120C10120EA9900061EFF063
:081185001212EE900061E0FF80
:01118D00223F
:1012FE00438901758C3C758AB0D2A9D2AFD28C22AB
:100DEC00900031EBF0A3EAF0A3E9F0900034EDF0C1
:100DFC00900036E4F0900035E0FF7E00120FE89092
:100E0C000036E4F0900034E0FF900036E0FEEEC3D4
:100E1C009F502D120FAA7C007D0A120338AF05904B
:100E2C000031E0FBA3E0FAA3E0F9900036E0FE8E7F
:100E3C0082758300EF120316900036E004F080C434
:010E4C002283
:0B09BF0090002AEBF0A3EAF0A3E9F09F
:1009CA0090002FE4F0A3E4F090002FE4F0A3E4F009
:1009DA0090002FE0FEA3E0FFC3EF9406EE6480943C
:1009EA0080506690002FE0FEA3E0FFEF2402FF9004
:1009FA00002AE0FBA3E0FAA3E0F990002FE0FCA3B1
:100A0A00E0FD8D828C831202E9FD1211BA90002D4D
:100A1A00E4F0A37464F090002DE0FEA3E0FFD3EFAE
:100A2A009400EE64809480401090002EE024FFF041
:100A3A0090002DE034FFF080DD900030E004F0708B
:100A4A000690002FE004F080877D017F0A1211BA18
:010A5A002279
:100F5700900062E4F0A3E4F0900062E0FEA3E0FFFB
:100F6700C3EF9406EE648094805037900062E0FEF1
:100F7700A3E0FFEF2402FF121160EF2430FF90007F
:100F870062E0FCA3E0FD74372DF58274003CF58325
:100F9700EFF0900063E004F07006900062E004F068
:020FA70080B612
:010FA9002225
:03002300020AF4DA
:100AF400C0E0C0F0C083C082C0D075D000C000C0C8
:0D0B040001C002C003C004C005C006C00748
:100B1100C2AF30981AC298900065E599F0900065CF
:100B2100E0FFEFB43107120F57C2A38002D2A390A6
:100B31000064E4F0900064E0FFEFC3940650279056
:100B41000064E0FF74372FF582E43400F583E0FFA1
:100B51008F993099FDC2997F017E0012103E90005D
:080B610064E004F080CED2AF85
:100B6900D007D006D005D004D003D002D001D000E0
:0B0B7900D0D0D082D083D0F0D0E0328A
:1012B600759850758920758700758DFD758BFDD2E3
:0612C6008ED2ACD2AF2273
:08103E00900049EEF0A3EFF071
:1010460090004CE4F090004CE0FF7E00900049E0F8
:10105600FCA3E0FDC3EF9DEE9C502090004BE4F016
:1010660090004BE0FFEFD39494500890004BE004BF
:0B107600F080ED90004CE004F080CA18
:01108100224C
:03000000020B846C
:0C0B8400787FE4F6D8FD758120020BCBD1
:1002D000BB010689828A83E0225002E722BBFE022C
:0902E000E32289828A83E493225F
:1002E900BB010CE58229F582E5833AF583E02250CA
:1002F90006E92582F8E622BBFE06E92582F8E22214
:0D030900E58229F582E5833AF583E493222D
:10031600F8BB010DE58229F582E5833AF583E8F01D
:10032600225006E92582C8F622BBFE05E92582C8C9
:02033600F222B1
:10033800C2D5EC30E709B2D5E4C39DFDE49CFCEEE0
:1003480030E715B2D5E4C39FFFE49EFE1203EDC368
:10035800E49DFDE49CFC80031203ED30D507C3E463
:060368009FFFE49EFE224F
:10036E00C5F0F8A3E028F0C5F0F8E582158270021A
:06037E001583E038F022B7
:10038400A3F8E0C5F025F0F0E5821582700215832C
:06039400E0C838F0E82289
:10039A00D083D082F8E4937012740193700DA3A3F2
:1003AA0093F8740193F5828883E473740293686006
:0603BA00EFA3A3A380DF06
:1003C000D083D082F8E4937012740193700DA3A3CC
:1003D00093F8740193F5828883E473740293B5F003
:0D03E000067403936860E9A3A3A3A380D86B
:100FAA0090004D1204427810EC4D4E4F70047CA50F
:100FBA007DA5C3EC13FCED13FDEE13FEEF13FF50FA
:100FCA0010EC64CCFCED644CFDEE644EFEEF64CE96
:100FDA00FFD8DF90004D12044EEE547FFE2290009F
:0D0FEA004DEEF0EFA3F0A374A5F0A3F022EC
:100B900002045AE493A3F8E493A34003F68001F21D
:100BA00008DFF48029E493A3F85407240CC8C33366
:100BB000C4540F4420C8834004F456800146F6DF35
:100BC000E4800B0102040810204080900FF7E47EBF
:100BD000019360BCA3FF543F30E509541FFEE4932A
:100BE000A360010ECF54C025E060A840B8E493A3F1
:100BF000FAE493A3F8E493A3C8C582C8CAC583CA1C
:100C0000F0A3C8C582C8CAC583CADFE9DEE780BED3
:01103D0000B2
:1003ED00BC000BBE0029EF8DF084FFADF022E4CCF4
:1003FD00F875F008EF2FFFEE33FEEC33FCEE9DECBD
:10040D00984005FCEE9DFE0FD5F0E9E4CEFD22ED02
:10041D00F8F5F0EE8420D21CFEADF075F008EF2F4C
:10042D00FFED33FD4007985006D5F0F222C398FD3D
:05043D000FD5F0EA22DA
:0C044200E0FCA3E0FDA3E0FEA3E0FF222D
:0C044E00ECF0A3EDF0A3EEF0A3EFF02221
:00000001FF
