:08125700900049EEF0A3EFF056
:10125F00900049E0FEA3E0FFD3EF9400EE9400402E
:10126F004290004C74C7F090004CE0FFEFD3940015
:10127F00402190004B7401F090004BE0FFEFD394AE
:10128F0000400890004BE014F080ED90004CE0140B
:10129F00F080D490004AE024FFF0900049E034FF42
:0312AF00F080AD1F
:0112B2002219
:10165600900073EFF0C2A7C2A6C2A5900073E0FF88
:101666008F807F017E00121257D2A77F057E00125F
:051676001257C2A7227B
:10167B00900074EFF0C2A7D2A6C2A5900074E0FF51
:10168B008F807F017E00121257D2A77F057E00123A
:05169B001257C2A72256
:100E300090004DEFF090004EEBF0A3EAF0A3E9F044
:100E400090004DE0FFEFD3940F504190004DE0FF34
:100E5000EF540FFFEF2480FF12165690004EE0FB78
:100E6000A3E0FAA3E0F9120026FFEF605F90004EC6
:100E7000E0FBA3E0FAA3E0F9120026FF12167B9034
:100E8000004FE475F0011200C480D02290004DE0C4
:100E9000FFEF540FFFEF24C0FF12165690004EE0F4
:100EA000FBA3E0FAA3E0F9120026FFEF601E90001A
:100EB0004EE0FBA3E0FAA3E0F9120026FF12167B36
:0D0EC00090004FE475F0011200C480D022B4
:1016F8007F381216567F0C1216567F061216567F22
:0A170800011216567F8012165622B9
:100D77002050656368696E20536369656E636520FB
:100D8700002020202057454C434F4D45212020204F
:100D97002000556E6C6F636B003C004368616E67A3
:100DA700652050617373776F7264002000656E6110
:100DB700626C652064746D6D00656E61626C65645C
:100DC7000064697361626C656400506173732057D6
:100DD7006F72643A2020002020202057454C434F53
:100DE7004D4521004572726F722030312100496EE6
:100DF7007075742050617373576F72643A0045724F
:100E0700726F72203031004E6577205061737357CF
:100E17006F72643A002020202020204F4B2100458C
:090E270072726F7220303221005A
:10140100410004064A0023080808080808000000F3
:101411000041000600410005014100180041002083
:1014210000420021000042001B000041001A00415F
:1014310000140042001D00004200070000420000AD
:07144100000142000200005F
:1009FD00900063E4F0A3E4F07F011216567FE87EC9
:100A0D00031216DD1216F87FE87E031216DD900034
:100A1D0017E4F090001FE4F0900019E4F07F091244
:100A2D0015ACEF640160077D007F00121630120ACD
:100A3D00FF12177412172C120BDB90002DEFF09094
:100A4D000017E0FFEF1200F00A6E000A73010A783A
:100A5D00020A7D030A82040A87050A8C0600000A31
:100A6D008F1215DA801C12150A8017120649801292
:100A7D00121712800D1217428008121542800312B0
:100A8D0014CE7F0A1215ACEFB401AC900063E4F004
:100A9D00A3E4F0900063E0FEA3E0FFC3EF9406EE45
:100AAD00648094805033900063E0FEA3E0FFEF2458
:100ABD0002FF1215AC900063E0FCA3E0FD74232D42
:100ACD00F58274003CF583EFF0900064E004F07063
:100ADD0006900063E004F080BA7D067F01121630A7
:100AED007F647E001216DD7D007F0A121630020A29
:010AFD0044B4
:010AFE0022D5
:1015DA001216F87BFF7A0D79777F00120E307BFFA7
:1015EA007A0D79887F10120E30120BDBEFB4FF0BE5
:0C15FA00120CB09000177401F080EE227B
:10150A007F011216567BFF7A0D79997F00120E30F1
:10151A007BFF7A0D79A07F0F120E307BFF7A0D794F
:10152A00A27F10120E307BFF7A0D79B27F1F120E46
:08153A00309000177402F0224A
:10064900900051E4F0A3E4F0900053E4F0A3E4F047
:1006590090002DE0FFEF640C700302084E90002D0E
:10066900E0FFEFB41029900001E024FFF0900000B2
:10067900E034FFF09000187401F0900000E0FEA350
:10068900E0FFEF4E7009900000E4F0A37403F090CE
:10069900002DE0FFEFB4132B900001E004F0700689
:1006A900900000E004F09000187401F0900000E060
:1006B900FEA3E0FFEF64044E7009900000E4F0A38C
:1006C9007401F090002DE0FFEF6410601690002D8A
:1006D900E0FFEF6413600C900053E4F0A37401F0A1
:1006E9000207CC900000E0FEA3E0FFEF8EF01201BC
:1006F90016070A0001074C0002078D0003000007D6
:10070900CC900018E0FFEFB401057F011216567B6B
:10071900FF7A0D79997F00120E307BFF7A0D79A04F
:100729007F0F120E307BFF7A0D79A27F10120E30E7
:100739007BFF7A0D79B27F1F120E30900018E4F01A
:100749000207CC900018E0FFEFB401057F011216F3
:10075900567BFF7A0D79997F00120E307BFF7A0D57
:1007690079B27F0F120E307BFF7A0D79A27F1012BA
:100779000E307BFF7A0D79A07F1F120E3090001882
:10078900E4F0803F900018E0FFEFB401057F01120B
:1007990016567BFF7A0D79A27F00120E307BFF7A05
:1007A9000D79B27F0F120E307BFF7A0D79B47F106D
:1007B900120E307BFF7A0D79A07F1F120E30900048
:1007C90018E4F0900053E0FEA3E0FFEF64014E60EF
:1007D900030208F290001CE004F0700690001BE090
:1007E90004F090001BE0FEA3E0FFEF64887003EEC5
:1007F900641360030208F290001BE4F0A3E4F09094
:100809000017E4F0900051E4F0A3E4F0900051E007
:10081900FEA3E0FFC3EF9414EE64809480400302CA
:1008290008F2B2A27FE87E031216DDB2A27FB87E7B
:100839000B1216DD900052E004F07006900051E0B2
:1008490004F080C822900000E0FEA3E0FFEF6401FD
:100859004E700F9000177403F0900000E4F0A37439
:1008690001F0900000E0FEA3E0FFEF64024E700F7C
:100879009000177405F0900000E4F0A37401F09063
:100889000000E0FEA3E0FFEF64034E705C900005FA
:10089900E0FFEFF4FF900005EFF0900005E0FFEFB7
:1008A900B40104D28C8002C28C900000E4F0A374DD
:1008B90001F07F01121656308C147BFF7A0D79C036
:1008C9007F00120E307F107E271216DD8015208CD6
:1008D900127BFF7A0D79C87F00120E307F107E27B8
:0908E9001216DD9000177401F0F5
:0108F20022E3
:101712009000177404F0900013E4F01216F87BFFA7
:0A1722007A0D79D17F00120E3022FB
:10174200C2021208F33001069000177406F0C201BB
:011752002274
:1015420090001FE0FFEF1200F01561001565011514
:101552006902156D031571041575050000157812E1
:1015620016C122121753221217842212130D2212AD
:0715720016A022120F6922EE
:1014CE001211843000221216F87BFF7A0D79DE7F1E
:1014DE0000120E30C2A27F607EEA1216DD7F607EA1
:1014EE00EA1216DDD2A2800E1216F87BFF7A0D7963
:0C14FE00EB7F00120E30900017E4F0228B
:1016C1007F011216567BFF7A0D79F57F00120E30DD
:0C16D10090001F7401F0900013E4F02260
:10175300C2021208F330010890001F7402F0C201A4
:011763002263
:0A17840012118490001F7403F0227C
:10130D00200037900019E0FFEFC3940350219000A7
:10131D0019E004F01216F87BFF7A0E79057F0012A2
:10132D000E307F207E4E1216DD90001FE4F02290CD
:10133D000019E4F0900017E4F0221216F87BFF7A02
:10134D000E790E7F00120E30900013E4F090001F06
:04135D007404F02202
:1016A000D2021208F330011890001F7405F0C20135
:1016B0007F011216567BFF7A0E791C7F00120E30C6
:0116C0002207
:100F6900900013E0FF900004EFF0900006E0FD7F91
:100F7900001216307F647E001216DD900004E0FD39
:100F89007F011216307F647E001216DD900076E430
:100F9900F0900004E0FF900076E0FEEEC39F504E13
:100FA900900076E0FF74092FF582E43400F583E0C0
:100FB900FF900076E0FE74232EF582E43400F58379
:100FC900EFF0900076E0FFEF2402FF900076E0FE5C
:100FD90074092EF582E43400F583E0FD1216307FA2
:100FE900647E001216DD900076E004F080A3900084
:080FF9001FE4F0900017E4F082
:0110010022CC
:100AFF007F001215AC900006EFF0900006E0FFEFBC
:100B0F00707C7D017F091216309000067401F07D14
:100B1F00017F001216307F647E001216DD7D067F86
:100B2F00011216307F647E001216DD900077E4F01C
:100B3F00900004E0FF900077E0FEEEC39F503F90DF
:100B4F000077E0FFEF2402FF7D0812163090007748
:100B5F00E0FF74092FF582E43400F583E0FF900085
:100B6F0077E0FE74232EF582E43400F583EFF07FF7
:100B7F00647E001216DD900077E004F080B27F00F3
:100B8F001215AC900006EFF07F011215AC90000427
:100B9F00EFF0900077E4F0900004E0FF900077E032
:100BAF00FEEEC39F5025900077E0FFEF2402FF1267
:100BBF0015AC900077E0FE74232EF582E43400F537
:0B0BCF0083EFF0900077E004F080CC92
:010BDA0022F8
:1008F30090002DE0FFEF640C70030209D590002DEA
:10090300E0FFEFC3940A505F90002DE0FF900013C7
:10091300E0FE74092EF582E43400F583EFF09000D5
:1009230013E004F07FC0121656900078E4F09000B4
:1009330013E0FF900078E0FEEEC39F502A200207E9
:100943007F2A12167B8018900078E0FF74092FF538
:1009530082E43400F583E0FFEF2430FF12167B902E
:100963000078E004F080C790002DE0FFEF640A6098
:10097300030209FC900013E0FFEF6008900013E00E
:1009830014F08005900017E4F07FC0121656900013
:1009930078E4F0900013E0FF900078E0FEEEC39F50
:1009A300502A2002077F2A12167B8018900078E0D5
:1009B300FF74092FF582E43400F583E0FFEF243060
:1009C300FF12167B900078E004F080C77F20121698
:1009D3007B22900013E0FFEF701D900017E4F07F7F
:1009E300011216567BFF7A0E79267F00120E307F96
:0909F300107E271216DD22D2014C
:0109FC0022D8
:10118400900066E4F0900013E0FF900004E0FEEEAF
:101194006F705C900065E4F0900004E0FF900065DF
:1011A400E0FEEEC39F504A900065E0FF74092FF5FE
:1011B40082E43400F583E0FF900065E0FE74232EA2
:1011C400F582E43400F583E0FEEE6F6005C2002290
:1011D4008002D200900065E0FF74092FF582E434A8
:1011E40000F58374FFF0900065E004F080AA22C249
:0111F40000FA
:0111F50022D7
:100CB000900020E0FFEF640170707B017A007923DF
:100CC00090001AE0FF900042EFF07D061211F67BD3
:100CD000017A007923120ECD90001AE0FF12160659
:100CE000900015EEF0A3EFF0900021E4F0A3E4F003
:100CF000900021E0FEA3E0FFC3EF9414EE64809423
:100D0000805022B2A37FE87E031216DDB2A37FE8F3
:100D10007E031216DD900022E004F07006900021A0
:100D2000E004F080CB900020E4F0900014E0FFEFAE
:100D30006401704290001DE4F0A3E4F090001DE017
:100D4000FEA3E0FFC3EF9414EE648094805022B2BF
:100D5000A27FE87E031216DDB2A27FE87E031216A0
:100D6000DD90001EE004F0700690001DE004F080AD
:070D7000CB900014E4F02217
:03000B0002110FD0
:0F110F00C0E0C083C082C0D075D000C006C0074A
:10111E00758C3C758AB0900003E004F07006900068
:10112E0002E004F090001AE004F0900002E0FEA34A
:10113E00E0FFEFB4B033EEB4042F900002E4F0A35E
:10114E00E4F0900017E0FFEF6013900017E0FFEF60
:10115E0064016009900017E0FFEFB4020C900014D8
:09116E007401F09000207401F0FE
:0D117700D007D006D0D0D082D083D0E03297
:0414480041007A00E5
:1016DD00900067EEF0A3EFF090006774FF75F0FFD8
:0B16ED001200DAAFF0FEEF4E70EE22AC
:100BDB00900079E4F075900FE590640F7003020CB0
:100BEB00A47FE87E031216DDE590640F7003020C00
:100BFB00AA75900FAF90EF1200F00C15070C1D0BA0
:100C0B000C250D0C2D0E00000C3390007A7401F0A6
:100C1B00801690007A7402F0800E90007A7403F0C4
:100C2B00800690007A740DF07590F0AF90EF120083
:100C3B00F00C4C700C58B00C61D00C6AE000000C3E
:100C4B008090007AE0FF90007AEFF0802890007A95
:100C5B00E02403F0801F90007AE02406F0801690C9
:100C6B00007AE0FFEFB4020690007A74F7F0900080
:100C7B007AE02409F0900079E0FFC3EF648094B22E
:100C8B00501DE59064F060177FE87E031216DD902F
:100C9B000079E004F080DE800690007A74FFF0901B
:040CAB00007AE0FFEC
:010CAF002222
:1015790090006A7401F090006AE0FFEFD394004094
:10158900219000697402F0900069E0FFEFD39400A4
:101599004008900069E014F080ED90006AE014F0D2
:0215A90080D4EC
:0115AB00221D
:10000E00D2A0121579D2A1121579C2A0121579C2F9
:05001E00A1121579227A
:10176400C2A0121579D2A1121579D2A0121579222C
:05108E0090005DEFF091
:1010930090005EE4F090005FE4F090005EE4F09076
:1010A300005EE0FFEFC39408503590005DE0FFEF72
:1010B300C41313135401FFEF24FF92A090005DE0CB
:1010C300FFEF25E0FF90005DEFF0121579D2A1123A
:1010D3001579C2A112157990005EE004F080C0D2A8
:1010E300A0121579D2A130A01B90005FE004F0900C
:1010F300005FE0FFEFD394C840ECC2A11215797FE3
:0B110300002280E2C2A11215797F01DA
:01110E0022BE
:1012B30090006BE4F090006CE4F0D2A012157990EA
:1012C300006BE4F090006BE0FFEFC394085035D25D
:1012D300A112157990006CE0FFEF25E0FF90006C00
:1012E300EFF090006CE0FFA2A0E433FEEF4EFF901E
:1012F300006CEFF0121579C2A112157990006BE022
:0913030004F080C090006CE0FFD2
:01130C0022BE
:1016300090006DEFF090006EEDF012000E7FA012A2
:10164000108E90006DE0FF12108E90006EE0FF1281
:06165000108E1217642247
:0515AC0090006FEFF05C
:1015B10012000E7FA012108E90006FE0FF12108EAD
:1015C10012000E7FA112108E1212B3900070EFF074
:0815D100121764900070E0FFA6
:0115D90022EF
:10177400438901758C3C758AB0D2A9D2AFD28C2230
:1011F60090003EEBF0A3EAF0A3E9F0900041EDF099
:10120600900043E4F0900042E0FF7E001213F2905B
:101216000043E4F0900041E0FF900043E0FEEEC39F
:101226009F502D1213B47C007D0A12008EAF0590DC
:10123600003EE0FBA3E0FAA3E0F9900043E0FE8E57
:1012460082758300EF12006C900043E004F080C4C6
:011256002275
:0B0ECD00900037EBF0A3EAF0A3E9F07F
:100ED80090003CE4F0A3E4F090003CE4F0A3E4F0DC
:100EE80090003CE0FEA3E0FFC3EF9406EE6480941C
:100EF80080506690003CE0FEA3E0FFEF2402FF90E4
:100F08000037E0FBA3E0FAA3E0F990003CE0FCA383
:100F1800E0FD8D828C8312003FFD12163090003A5E
:100F2800E4F0A37464F090003AE0FEA3E0FFD3EF8E
:100F38009400EE64809480401090003BE024FFF021
:100F480090003AE034FFF080DD90003DE004F0705E
:100F58000690003CE004F080877D017F0A1216307D
:010F68002266
:05160600900060EFF010
:10160B00900060E0FF7E001213F21213B47C007D99
:10161B000312008E900061ECF0A3EDF0900061E0FE
:04162B00FEA3E0FF3B
:01162F002298
:101491003231006A61736F6E0079657300686F772E
:1014A100206F6C642061726520796F7500776861C7
:1014B1007420697320796F7572206E616D650061AA
:0D14C100726520796F75206120626F7900DF
:10136100900071E4F0A3E4F0900071E0FEA3E0FFCF
:10137100C3EF9406EE648094805037900071E0FED4
:10138100A3E0FFEF2402FF1215ACEF2430FF900021
:1013910071E0FCA3E0FD742E2DF58274003CF58311
:1013A100EFF0900072E004F07006900071E004F03C
:0213B10080B604
:0113B3002217
:0300230002034B8A
:10034B00C0E0C0F0C083C082C0D075D000C000C078
:0D035B0001C002C003C004C005C006C007F9
:10036800900045E4F0900046E4F0900048E4F0C2C4
:10037800AC2098030205EDC298900047E599F090EB
:100388000047E0FFEF643960030205EB121361C216
:10039800A3900015E0FEA3E0FFEF8EF01201160314
:1003A800B7000004730001052F0002000005ED7B73
:1003B800FF7A14799E900034EBF0A3EAF0A3E9F0F9
:1003C800900034E0FBA3E0FAA3E0F9120026FF8FC7
:1003D800993099FDC299900035E475F0011200C476
:1003E800900034E0FBA3E0FAA3E0F9120026FFEF47
:1003F80070CE20981A900046E0FF7E00C3EF9488E4
:10040800EE648094935008900046E004F080E3C2C4
:1004180098900045E0FF74002FF582E43400F583DE
:10042800E599F0900045E004F0E59970E47BFF7AE7
:10043800147991C003C002C0017B017A007900A839
:1004480001AC02AD03D001D002D0031202C1EF709B
:10045800099000487401F00205ED900000E004F0F6
:100468007006900000E004F00205ED7BFF7A147935
:10047800AE900034EBF0A3EAF0A3E9F0900034E08A
:10048800FBA3E0FAA3E0F9120026FF8F993099FD4B
:10049800C299900035E475F0011200C4900034E070
:1004A800FBA3E0FAA3E0F9120026FFEF70CE209834
:1004B8001A900046E0FF7E00C3EF9488EE648094B3
:1004C800935008900046E004F080E3C298900045FD
:1004D800E0FF74002FF582E43400F583E599F0908D
:1004E8000045E004F0E59970E47BFF7A147994C044
:1004F80003C002C0017B017A007900A801AC02ADFB
:1005080003D001D002D0031202C1EF700990004855
:100518007401F00205ED900000E004F07006900010
:1005280000E004F00205ED7BFF7A1479C0900034F6
:10053800EBF0A3EAF0A3E9F0900034E0FBA3E0FAC3
:10054800A3E0F9120026FF8F993099FDC299900017
:1005580035E475F0011200C4900034E0FBA3E0FA22
:10056800A3E0F9120026FFEF70CE20981A900046FB
:10057800E0FF7E00C3EF9488EE6480949350089067
:100588000046E004F080E3C298900045E0FF740064
:100598002FF582E43400F583E599F0900045E004F6
:1005A800F0E59970E47BFF7A14799AC003C002C021
:1005B800017B017A007900A801AC02AD03D001D01B
:1005C80002D0031202C1EF70089000487401F08055
:1005D80014900000E004F07006900000E004F08041
:1005E800048002D2A3900048E0FFEF6037900044F7
:1005F800E4F0900044E0FFEFC394065027900044D5
:10060800E0FF742E2FF582E43400F583E0FF8F9924
:100618003099FDC2997F017E0012144D900044E08C
:0606280004F080CED2AC0C
:10062E00D007D006D005D004D003D002D001D00020
:0B063E00D0D0D082D083D0F0D0E032CA
:10172C00759850438920758700758DFD758BFDD29A
:06173C008ED2ACD2AF22F8
:08144D00900055EEF0A3EFF052
:10145500900058E4F0900058E0FF7E00900055E0C1
:10146500FCA3E0FDC3EF9DEE9C5020900057E4F0F7
:10147500900057E0FFEFD394945008900057E00494
:0B148500F080ED900058E004F080CAF9
:011490002239
:03000000021002E9
:0C100200787FE4F6D8FD758120021049CB
:10002600BB010689828A83E0225002E722BBFE02D8
:09003600E32289828A83E493220B
:10003F00BB010CE58229F582E5833AF583E0225076
:10004F0006E92582F8E622BBFE06E92582F8E222C0
:0D005F00E58229F582E5833AF583E49322DA
:10006C00F8BB010DE58229F582E5833AF583E8F0CA
:10007C00225006E92582C8F622BBFE05E92582C876
:02008C00F2225E
:10008E00C2D5EC30E709B2D5E4C39DFDE49CFCEE8D
:10009E0030E715B2D5E4C39FFFE49EFE1202DEC325
:1000AE00E49DFDE49CFC80031202DE30D507C3E420
:0600BE009FFFE49EFE22FC
:1000C400C5F0F8A3E028F0C5F0F8E58215827002C7
:0600D4001583E038F02264
:1000DA00A3F8E0C5F025F0F0E582158270021583D9
:0600EA00E0C838F0E82236
:1000F000D083D082F8E4937012740193700DA3A39F
:1001000093F8740193F5828883E4737402936860B2
:06011000EFA3A3A380DFB2
:10011600D083D082F8E4937012740193700DA3A378
:1001260093F8740193F5828883E473740293B5F0AF
:0D013600067403936860E9A3A3A3A380D817
:1013B4009000591203337810EC4D4E4F70047CA505
:1013C4007DA5C3EC13FCED13FDEE13FEEF13FF50EC
:1013D40010EC64CCFCED644CFDEE644EFEEF64CE88
:1013E400FFD8DF90005912033FEE547FFE22900095
:0D13F40059EEF0EFA3F0A374A5F0A3F022D2
:10014300E3F5F009E208B5F06D606B80F3E3F5F0D9
:1001530009E608B5F060605E80F387F009E608B54C
:10016300F054605280F487F009E208B5F048604625
:1001730080F488828C8387F009E0A3B5F038603679
:1001830080F488828C8387F009E493A3B5F0276019
:100193002580F388828C83E3F5F009E0A3B5F0169C
:1001A300601480F388828C83E3F5F009E493A3B5AC
:1001B300F004600280F202026E808580E7808E8008
:1001C300D2803C8015806C807E809B80B5808B8044
:1001D300A1804F8070803A02027A89828A83ECFA86
:1001E300E493F5F0A3C8C582C8CCC583CCE493A33C
:1001F300C8C582C8CCC583CCB5F070606E80E18978
:10020300828A83E493F5F0A3E208B5F05E605C8034
:10021300F289828A83E0F5F0A3E608B5F04D604BDE
:1002230080F389828A83E0F5F0A3E208B5F03C60AD
:100233003A80F389828A83E493F5F0A3E608B5F064
:100243002A602880F2805389828A83ECFAE493F54A
:10025300F0A3C8C582C8CCC583CCE0A3C8C582C8F7
:10026300CCC583CCB5F004600280E27FFFB5F00219
:100273000F2240027F012289828A83ECFAE0F5F0A3
:10028300A3C8C582C8CCC583CCE0A3C8C582C8CCEB
:10029300C583CCB5F0D560D380E389828A83ECFA39
:1002A300E0F5F0A3C8C582C8CCC583CCE493A3C84A
:1002B300C582C8CCC583CCB5F0B160AF80E288F00D
:1002C300ED2402B4040050A3F582EB2402B404002D
:0B02D300509923234582239001BC7347
:10100E000209FDE493A3F8E493A34003F68001F2F2
:10101E0008DFF48029E493A3F85407240CC8C333E3
:10102E00C4540F4420C8834004F456800146F6DFB2
:10103E00E4800B0102040810204080901401E47E2D
:10104E00019360BCA3FF543F30E509541FFEE493A7
:10105E00A360010ECF54C025E060A840B8E493A36E
:10106E00FAE493A3F8E493A3C8C582C8CAC583CA99
:10107E00F0A3C8C582C8CAC583CADFE9DEE780BE51
:01144C00009F
:1002DE00BC000BBE0029EF8DF084FFADF022E4CC04
:1002EE00F875F008EF2FFFEE33FEEC33FCEE9DECCD
:1002FE00984005FCEE9DFE0FD5F0E9E4CEFD22ED13
:10030E00F8F5F0EE8420D21CFEADF075F008EF2F5C
:10031E00FFED33FD4007985006D5F0F222C398FD4D
:05032E000FD5F0EA22EA
:0C033300E0FCA3E0FDA3E0FEA3E0FF223D
:0C033F00ECF0A3EDF0A3EEF0A3EFF02231
:00000001FF
