:08142B0090005DEEF0A3EFF06C
:1014330090005DE0FEA3E0FFD3EF9400EE94004044
:101443004290006074C7F0900060E0FFEFD3940017
:10145300402190005F7401F090005FE0FFEFD394B0
:1014630000400890005FE014F080ED900060E0140D
:10147300F080D490005EE024FFF090005DE034FF44
:03148300F080AD49
:011486002243
:10183000900087EFF0C2A7C2A6C2A5900087E0FF84
:101840008F807F017E0012142BD2A77F057E0012AD
:05185000142BC2A722C9
:10185500900088EFF0C2A7D2A6C2A5900088E0FF4D
:101865008F807F017E0012142BD2A77F057E001288
:05187500142BC2A722A4
:10100400900061EFF0900062EBF0A3EAF0A3E9F046
:10101400900061E0FFEFD3940F5041900061E0FF36
:10102400EF540FFFEF2480FF121830900062E0FBB2
:10103400A3E0FAA3E0F91204F8FFEF605F90006206
:10104400E0FBA3E0FAA3E0F91204F8FF12185590AC
:101054000063E475F00112059680D022900061E0EF
:10106400FFEF540FFFEF24C0FF121830900062E02E
:10107400FBA3E0FAA3E0F91204F8FFEF601E90006E
:1010840062E0FBA3E0FAA3E0F91204F8FF1218559A
:0D109400900063E475F00112059680D022F3
:1018D2007F381218307F0C1218307F061218307FB2
:0A18E200011218307F801218302226
:100F4B002050656368696E20536369656E63652025
:100F5B00002020202057454C434F4D452120202079
:100F6B002000556E6C6F636B003C004368616E67CD
:100F7B00652050617373776F7264002000656E613A
:100F8B00626C652064746D6D00656E61626C656486
:100F9B000064697361626C65640050617373205700
:100FAB006F72643A2020002020202057454C434F7D
:100FBB004D4521004572726F722030312100496E10
:100FCB007075742050617373576F72643A00457279
:100FDB00726F72203031004E6577205061737357FA
:100FEB006F72643A002020202020204F4B210045B7
:090FFB0072726F72203032210085
:1015D500410004064A002108080808080800000020
:1015E5000041000600410005014100160041001EB2
:1015F5000042001F00004200190000410018004190
:1016050000120042001B00004200000001420002DF
:021615000000D3
:100BD100900077E4F0A3E4F07F011218307FE87E03
:100BE100031218B71218D27FE87E031218B79000CB
:100BF10015E4F090001DE4F0900017E4F07F091275
:100C01001786EF640160077D007F0012180A120C3D
:100C1100D312194E121906120DAF90002BEFF0905E
:100C21000015E0FFEF1205C20C42000C47010C4C0D
:100C3100020C51030C56040C5B050C600600000C01
:100C4100631217B4801C1216E4801712081D80125B
:100C51001218EC800D12191C800812171C80031247
:100C610016A87F0A121786EFB401AC900077E4F062
:100C7100A3E4F0900077E0FEA3E0FFC3EF9406EE5B
:100C8100648094805033900077E0FEA3E0FFEF246E
:100C910002FF121786900077E0FCA3E0FD74212D7E
:100CA100F58274003CF583EFF0900078E004F07079
:100CB10006900077E004F080BA7D067F0112180AE1
:100CC1007F647E001218B77D007F0A12180A020C99
:010CD100180A
:010CD20022FF
:1017B4001218D27BFF7A0F794B7F001210047BFF43
:1017C4007A0F795C7F10121004120DAFEFB4FF0B87
:0C17D400120E849000157401F080EE22CB
:1016E4007F011218307BFF7A0F796D7F001210048E
:1016F4007BFF7A0F79747F0F1210047BFF7A0F79C6
:10170400767F101210047BFF7A0F79867F1F1210E8
:08171400049000157402F0229C
:10081D00900065E4F0A3E4F0900067E4F0A3E4F049
:10082D0090002BE0FFEF640C7003020A2290002B66
:10083D00E0FFEFB41029900001E024FFF0900000DC
:10084D00E034FFF09000167401F0900000E0FEA37C
:10085D00E0FFEF4E7009900000E4F0A37403F090F8
:10086D00002BE0FFEFB4132B900001E004F07006B5
:10087D00900000E004F09000167401F0900000E08C
:10088D00FEA3E0FFEF64044E7009900000E4F0A3B6
:10089D007401F090002BE0FFEF6410601690002BB8
:1008AD00E0FFEF6413600C900067E4F0A37401F0B7
:1008BD000209A0900000E0FEA3E0FFEF8EF012050C
:1008CD00E808DE00010920000209610003000009AB
:1008DD00A0900016E0FFEFB401057F011218307BE8
:1008ED00FF7A0F796D7F001210047BFF7A0F7974F8
:1008FD007F0F1210047BFF7A0F79767F1012100490
:10090D007BFF7A0F79867F1F121004900016E4F09A
:10091D000209A0900016E0FFEFB401057F01121847
:10092D00307BFF7A0F796D7F001210047BFF7A0FF9
:10093D0079867F0F1210047BFF7A0F79767F101264
:10094D0010047BFF7A0F79747F1F1210049000162C
:10095D00E4F0803F900016E0FFEFB401057F011237
:10096D0018307BFF7A0F79767F001210047BFF7AA7
:10097D000F79867F0F1210047BFF7A0F79887F1015
:10098D001210047BFF7A0F79747F1F1210049000F0
:10099D0016E4F0900067E0FEA3E0FFEF64014E6007
:1009AD0003020AC690001AE004F07006900019E0E8
:1009BD0004F0900019E0FEA3E0FFEF64887003EEF1
:1009CD0064136003020AC6900019E4F0A3E4F090EA
:1009DD000015E4F0900065E4F0A3E4F0900065E00C
:1009ED00FEA3E0FFC3EF9414EE64809480400302F5
:1009FD000AC6B2A27FE87E031218B7B2A27FB87EF4
:100A0D000B1218B7900066E004F07006900065E0D8
:100A1D0004F080C822900000E0FEA3E0FFEF640127
:100A2D004E700F9000157403F0900000E4F0A37465
:100A3D0001F0900000E0FEA3E0FFEF64024E700FA6
:100A4D009000157405F0900000E4F0A37401F0908F
:100A5D000000E0FEA3E0FFEF64034E705C90000524
:100A6D00E0FFEFF4FF900005EFF0900005E0FFEFE1
:100A7D00B40104D28C8002C28C900000E4F0A37407
:100A8D0001F07F01121830308C147BFF7A0F7994AE
:100A9D007F001210047F107E271218B78015208C4E
:100AAD00127BFF7A0F799C7F001210047F107E2736
:090ABD001218B79000157401F045
:010AC600220D
:1018EC009000157404F0900011E4F01218D27BFFF4
:0A18FC007A0F79A57F001210042274
:10191C00C202120AC73001069000157406F0C2010B
:01192C002298
:10171C0090001DE0FFEF1205C2173B00173F0117A9
:10172C004302174703174B04174F050000175212BB
:10173C00189B2212192D2212195E221214E1221268
:07174C00187A2212113D2260
:1016A8001213583000221218D27BFF7A0F79B27FBA
:1016B80000121004C2A27F607EEA1218B77F607E13
:1016C800EA1218B7D2A2800E1218D27BFF7A0F79CD
:0C16D800BF7F00121004900015E4F02207
:10189B007F011218307BFF7A0F79C97F0012100479
:0C18AB0090001D7401F0900011E4F02288
:10192D00C202120AC730010890001D7402F0C201F4
:01193D002287
:0A195E0012135890001D7403F022CC
:1014E100200037900017E0FFEFC3940350219000D4
:1014F10017E004F01218D27BFF7A0F79D97F00121E
:1015010010047F207E4E1218B790001DE4F0229047
:101511000017E4F0900015E4F0221218D27BFF7A54
:101521000F79E27F00121004900011E4F090001D89
:041531007404F0222C
:10187A00D202120AC730011890001D7405F0C20185
:10188A007F011218307BFF7A0F79F07F0012100463
:01189A00222B
:10113D00900011E0FF900004EFF0900006E0FD7FBD
:10114D000012180A7F647E001218B7900004E0FDAB
:10115D007F0112180A7F647E001218B790008AE48E
:10116D00F0900004E0FF90008AE0FEEEC39F504E29
:10117D0090008AE0FF74072FF582E43400F583E0D8
:10118D00FF90008AE0FE74212EF582E43400F58391
:10119D00EFF090008AE0FFEF2402FF90008AE0FE5E
:1011AD0074072EF582E43400F583E0FD12180A7FF2
:1011BD00647E001218B790008AE004F080A39000BE
:0811CD001DE4F0900015E4F0B0
:0111D50022F7
:100CD3007F00121786900006EFF0900006E0FFEF0A
:100CE300707C7D017F0912180A9000067401F07D63
:100CF300017F0012180A7F647E001218B77D067FF9
:100D03000112180A7F647E001218B790008BE4F07A
:100D1300900004E0FF90008BE0FEEEC39F503F90F5
:100D2300008BE0FFEF2402FF7D0812180A90008B6E
:100D3300E0FF74072FF582E43400F583E0FF9000B1
:100D43008BE0FE74212EF582E43400F583EFF07F0F
:100D5300647E001218B790008BE004F080B27F002D
:100D6300121786900006EFF07F0112178690000499
:100D7300EFF090008BE4F0900004E0FF90008BE034
:100D8300FEEEC39F502590008BE0FFEF2402FF127D
:100D9300178690008BE0FE74212EF582E43400F573
:0B0DA30083EFF090008BE004F080CCA8
:010DAE002222
:100AC70090002BE0FFEF640C7003020BA990002B42
:100AD700E0FFEFC3940A505F90002BE0FF900011F6
:100AE700E0FE74072EF582E43400F583EFF0900002
:100AF70011E004F07FC012183090008CE4F09000F1
:100B070011E0FF90008CE0FEEEC39F502A20020701
:100B17007F2A121855801890008CE0FF74072FF574
:100B270082E43400F583E0FFEF2430FF121855907C
:100B3700008CE004F080C790002BE0FFEF640A60B0
:100B470003020BD0900011E0FFEF6008900011E066
:100B570014F08005900015E4F07FC0121830900063
:100B67008CE4F0900011E0FF90008CE0FEEEC39F54
:100B7700502A2002077F2A121855801890008CE00F
:100B8700FF74072FF582E43400F583E0FFEF24308C
:100B9700FF12185590008CE004F080C77F201218D0
:100BA7005522900011E0FFEF701D900015E4F07FD3
:100BB700011218307BFF7A0F79FA7F001210047F39
:090BC700107E271218B722D2019A
:010BD0002202
:1013580090007AE4F0900011E0FF900004E0FEEEC7
:101368006F705C900079E4F0900004E0FF900079E1
:10137800E0FEEEC39F504A900079E0FF74072FF516
:1013880082E43400F583E0FF900079E0FE74212EBA
:10139800F582E43400F583E0FEEE6F6005C20022BA
:1013A8008002D200900079E0FF74072FF582E434C0
:1013B80000F58374FFF0900079E004F080AA22C25F
:0113C8000024
:0113C9002201
:100E840090001EE0FFEF640170707B017A0079210D
:100E9400900018E0FF900056EFF07D061213CA7B15
:100EA400017A0079211210A1900018E0FF1217E0D6
:100EB400900013EEF0A3EFF090001FE4F0A3E4F031
:100EC40090001FE0FEA3E0FFC3EF9414EE6480944F
:100ED400805022B2A37FE87E031218B7B2A37FE842
:100EE4007E031218B7900020E004F0700690001FF3
:100EF400E004F080CB90001EE4F0900012E0FFEFDD
:100F04006401704290001BE4F0A3E4F090001BE045
:100F1400FEA3E0FFC3EF9414EE648094805022B2E9
:100F2400A27FE87E031218B7B2A27FE87E031218EC
:100F3400B790001CE004F0700690001BE004F08001
:070F4400CB900012E4F02243
:03000B000212E3FB
:0F12E300C0E0C083C082C0D075D000C006C00775
:1012F200758C3C758AB0900003E004F07006900093
:1013020002E004F0900018E004F0900002E0FEA376
:10131200E0FFEFB4B033EEB4042F900002E4F0A388
:10132200E4F0900015E0FFEF6013900015E0FFEF8E
:1013320064016009900015E0FFEFB4020C90001206
:091342007401F090001E7401F02A
:0D134B00D007D006D0D0D082D083D0E032C1
:0416170041008E0000
:1018B70090007BEEF0A3EFF090007B74FF75F0FFD4
:0B18C7001205ACAFF0FEEF4E70EE22F9
:100DAF0090008DE4F075900FE590640F7003020EC4
:100DBF00787FE87E031218B7E590640F7003020E78
:100DCF007E75900FAF90EF1205C20DE9070DF10B75
:100DDF000DF90D0E010E00000E0790008E7401F03C
:100DEF00801690008E7402F0800E90008E7403F0C7
:100DFF00800690008E740DF07590F0AF90EF120595
:100E0F00C20E20700E2CB00E35D00E3EE000000E3C
:100E1F005490008EE0FF90008EEFF0802890008EAF
:100E2F00E02403F0801F90008EE02406F0801690DF
:100E3F00008EE0FFEFB4020690008E74F7F0900082
:100E4F008EE02409F090008DE0FFC3EF648094B230
:100E5F00501DE59064F060177FE87E031218B7907D
:100E6F00008DE004F080DE800690008E74FFF0901D
:040E7F00008EE0FF02
:010E8300224C
:1017530090007E7401F090007EE0FFEFD394004090
:101763002190007D7402F090007DE0FFEFD39400A0
:10177300400890007DE014F080ED90007EE014F0CE
:0217830080D410
:011785002241
:10000E00D2A0121753D2A1121753C2A0121753C265
:05001E00A1121753229E
:10193E00C2A0121753D2A1121753D2A012175322BC
:05126200900071EFF0A7
:10126700900072E4F0900073E4F0900072E4F09064
:101277000072E0FFEFC394085035900071E0FFEF74
:10128700C41313135401FFEF24FF92A0900071E0E1
:10129700FFEF25E0FF900071EFF0121753D2A11274
:1012A7001753C2A1121753900072E004F080C0D206
:1012B700A0121753D2A130A01B900073E004F09046
:1012C7000073E0FFEFD394C840ECC2A11217537F1D
:0B12D700002280E2C2A11217537F0129
:0112E20022E9
:1014870090007FE4F0900080E4F0D2A01217539010
:10149700007FE4F090007FE0FFEFC394085035D25F
:1014A700A1121753900080E0FFEF25E0FF90008026
:1014B700EFF0900080E0FFA2A0E433FEEF4EFF9034
:1014C7000080EFF0121753C2A112175390007FE06C
:0914D70004F080C0900080E0FFE9
:0114E00022E9
:10180A00900081EFF0900082EDF012000E7FA0129E
:10181A001262900081E0FF121262900082E0FF12D1
:06182A00126212193E22B9
:05178600900083EFF06C
:10178B0012000E7FA0121262900083E0FF12126211
:10179B0012000E7FA1121262121487900084EFF0D8
:0817AB0012193E900084E0FFDA
:0117B3002213
:10194E00438901758C3C758AB0D2A9D2AFD28C2254
:1013CA00900052EBF0A3EAF0A3E9F0900055EDF09B
:1013DA00900057E4F0900056E0FF7E001215C69088
:1013EA000057E4F0900055E0FF900057E0FEEEC38E
:1013FA009F502D1215887C007D0A120560AF05905A
:10140A000052E0FBA3E0FAA3E0F9900057E0FE8E59
:10141A0082758300EF12053E900057E004F080C405
:01142A00229F
:0B10A10090004BEBF0A3EAF0A3E9F095
:1010AC00900050E4F0A3E4F0900050E4F0A3E4F0DE
:1010BC00900050E0FEA3E0FFC3EF9406EE64809432
:1010CC00805066900050E0FEA3E0FFEF2402FF90FA
:1010DC00004BE0FBA3E0FAA3E0F9900050E0FCA386
:1010EC00E0FD8D828C83120511FD12180A90004EC2
:1010FC00E4F0A37464F090004EE0FEA3E0FFD3EFA5
:10110C009400EE64809480401090004FE024FFF037
:10111C0090004EE034FFF080DD900051E004F07060
:10112C0006900050E004F080877D017F0A12180AB7
:01113C002290
:0517E000900074EFF021
:1017E500900074E0FF7E001215C61215887C007DFE
:1017F50003120560900075ECF0A3EDF0900075E024
:04180500FEA3E0FF5F
:0118090022BC
:101665003231006A61736F6E0079657300686F7758
:10167500206F6C642061726520796F7500776861F1
:101685007420697320796F7572206E616D650061D4
:10169500726520796F75206120626F790077726FAE
:0316A5006E67006D
:05161B0042002C00005C
:10153500900085E4F0A3E4F0900085E0FEA3E0FFD1
:10154500C3EF9406EE648094805037900085E0FEEA
:10155500A3E0FFEF2402FF121786EF2430FF90006F
:1015650085E0FCA3E0FD742E2DF58274003CF58327
:10157500EFF0900086E004F07006900085E004F03E
:0215850080B62E
:011587002241
:03002300020026B2
:10002600C0E0C0F0C083C082C0D075D000C000C0A0
:0D00360001C002C003C004C005C006C00721
:10004300900059E4F090005AE4F090005CE4F0C2B0
:10005300AC20980302049CC29890005BE599F09051
:10006300005BE0FFEF6439600302049A121535C2A6
:10007300A3900013E0FEA3E0FFEF8EF01205E8006B
:100083008E000001E70001000003407BFF7A167930
:1000930072900034EBF0A3EAF0A3E9F0900034E0AF
:1000A300FBA3E0FAA3E0F91204F8FF8F993099FD5E
:1000B300C299900035E475F001120596900034E082
:1000C300FBA3E0FAA3E0F91204F8FFEF70CE209847
:1000D3001A90005AE0FF7E00C3EF9488EE64809488
:1000E30093500890005AE004F080E3900059E0FF39
:1000F30074372FF582E43400F583E599F0900059C5
:10010300E004F0C2987F0A7E00121621900059E0A5
:10011300FF74372FF582E43400F583E0FFEF70CBF3
:100123007BFF7A167965C003C002C0017B017A00A8
:100133007937A801AC02AD03D001D002D003120776
:1001430093EF700990005C7401F002049C90002D01
:10015300E004F0700690002CE004F07BFF7A16793F
:10016300A2900034EBF0A3EAF0A3E9F0900034E0AE
:10017300FBA3E0FAA3E0F91204F8FF8F993099FD8D
:10018300C299900035E475F001120596900034E0B1
:10019300FBA3E0FAA3E0F91204F8FFEF70CE7B01B2
:1001A3007A007937900034EBF0A3EAF0A3E9F090FA
:1001B3000034E0FBA3E0FAA3E0F91204F8FF8F99FF
:1001C3003099FDC299900035E475F00112059690BF
:1001D3000034E0FBA3E0FAA3E0F91204F8FFEF70A8
:1001E300CE02049C7BFF7A167982900034EBF0A355
:1001F300EAF0A3E9F0900034E0FBA3E0FAA3E0F90E
:100203001204F8FF8F993099FDC299900035E47577
:10021300F001120596900034E0FBA3E0FAA3E0F9A5
:100223001204F8FFEF70CE20981A90005AE0FF7E78
:1002330000C3EF9488EE64809493500890005AE0D2
:1002430004F080E3900059E0FF74372FF582E43423
:1002530000F583E599F0900059E004F0C2987F0A15
:100263007E00121621900059E0FF74372FF582E4C7
:100273003400F583E0FFEF70CB7BFF7A167968C01B
:1002830003C002C0017B017A007937A801AC02AD3B
:1002930003D001D002D003120793EF700990005CE2
:1002A3007401F002049C90002DE004F070069000AD
:1002B3002CE004F07BFF7A1679A2900034EBF0A3D4
:1002C300EAF0A3E9F0900034E0FBA3E0FAA3E0F93D
:1002D3001204F8FF8F993099FDC299900035E475A7
:1002E300F001120596900034E0FBA3E0FAA3E0F9D5
:1002F3001204F8FFEF70CE7B017A00793790003457
:10030300EBF0A3EAF0A3E9F0900034E0FBA3E0FAFA
:10031300A3E0F91204F8FF8F993099FDC299900078
:1003230035E475F001120596900034E0FBA3E0FA82
:10033300A3E0F91204F8FFEF70CE02049C7BFF7A6E
:10034300167994900034EBF0A3EAF0A3E9F090005F
:1003530034E0FBA3E0FAA3E0F91204F8FF8F99302D
:1003630099FDC299900035E475F00112059690004D
:1003730034E0FBA3E0FAA3E0F91204F8FFEF70CE38
:1003830020981A90005AE0FF7E00C3EF9488EE6431
:10039300809493500890005AE004F080E390005951
:1003A300E0FF74372FF582E43400F583E599F0908C
:1003B3000059E004F0C2987F0A7E001216219000D3
:1003C30059E0FF74372FF582E43400F583E0FFEF43
:1003D30070CB7BFF7A16796EC003C002C0017B012C
:1003E3007A007937A801AC02AD03D001D002D00363
:1003F300120793EF700990005C7401F002049C9063
:10040300002DE004F0700690002CE004F07BFF7AEE
:100413001679A2900034EBF0A3EAF0A3E9F0900080
:1004230034E0FBA3E0FAA3E0F91204F8FF8F99305C
:1004330099FDC299900035E475F00112059690007C
:1004430034E0FBA3E0FAA3E0F91204F8FFEF70CE67
:100453007B017A007937900034EBF0A3EAF0A3E94B
:10046300F0900034E0FBA3E0FAA3E0F91204F8FFF4
:100473008F993099FDC299900035E475F00112050A
:1004830096900034E0FBA3E0FAA3E0F91204F8FF2E
:10049300EF70CE80048002D2A390005CE0FFEF6097
:1004A30037900058E4F0900058E0FFEFC3940650F3
:1004B30027900058E0FF742E2FF582E43400F58373
:1004C300E0FF8F993099FDC2997F017E00121621BA
:0A04D300900058E004F080CED2AC97
:1004DD00D007D006D005D004D003D002D001D00073
:0B04ED00D0D0D082D083D0F0D0E0321D
:10190600759850438920758700758DFD758BFDD2BE
:061916008ED2ACD2AF221C
:08162100900069EEF0A3EFF068
:1016290090006CE4F090006CE0FF7E00900069E0AF
:10163900FCA3E0FDC3EF9DEE9C502090006BE4F00D
:1016490090006BE0FFEFD39494500890006BE00496
:0B165900F080ED90006CE004F080CA0F
:011664002263
:030000000211D614
:0C11D600787FE4F6D8FD75812002121D20
:1004F800BB010689828A83E0225002E722BBFE0202
:09050800E32289828A83E4932234
:10051100BB010CE58229F582E5833AF583E022509F
:1005210006E92582F8E622BBFE06E92582F8E222E9
:0D053100E58229F582E5833AF583E4932203
:10053E00F8BB010DE58229F582E5833AF583E8F0F3
:10054E00225006E92582C8F622BBFE05E92582C89F
:02055E00F22287
:10056000C2D5EC30E709B2D5E4C39DFDE49CFCEEB6
:1005700030E715B2D5E4C39FFFE49EFE1207B0C377
:10058000E49DFDE49CFC80031207B030D507C3E472
:060590009FFFE49EFE2225
:10059600C5F0F8A3E028F0C5F0F8E58215827002F0
:0605A6001583E038F0228D
:1005AC00A3F8E0C5F025F0F0E58215827002158302
:0605BC00E0C838F0E8225F
:1005C200D083D082F8E4937012740193700DA3A3C8
:1005D20093F8740193F5828883E4737402936860DC
:0605E200EFA3A3A380DFDC
:1005E800D083D082F8E4937012740193700DA3A3A2
:1005F80093F8740193F5828883E473740293B5F0D9
:0D060800067403936860E9A3A3A3A380D840
:1015880090006D1208057810EC4D4E4F70047CA544
:101598007DA5C3EC13FCED13FDEE13FEEF13FF5016
:1015A80010EC64CCFCED644CFDEE644EFEEF64CEB2
:1015B800FFD8DF90006D120811EE547FFE229000D4
:0D15C8006DEEF0EFA3F0A374A5F0A3F022E8
:10061500E3F5F009E208B5F06D606B80F3E3F5F002
:1006250009E608B5F060605E80F387F009E608B575
:10063500F054605280F487F009E208B5F04860464E
:1006450080F488828C8387F009E0A3B5F0386036A2
:1006550080F488828C8387F009E493A3B5F0276042
:100665002580F388828C83E3F5F009E0A3B5F016C5
:10067500601480F388828C83E3F5F009E493A3B5D5
:10068500F004600280F2020740808580E7808E805A
:10069500D2803C8015806C807E809B80B5808B806D
:1006A500A1804F8070803A02074C89828A83ECFAD8
:1006B500E493F5F0A3C8C582C8CCC583CCE493A365
:1006C500C8C582C8CCC583CCB5F070606E80E189A1
:1006D500828A83E493F5F0A3E208B5F05E605C805E
:1006E500F289828A83E0F5F0A3E608B5F04D604B08
:1006F50080F389828A83E0F5F0A3E208B5F03C60D7
:100705003A80F389828A83E493F5F0A3E608B5F08D
:100715002A602880F2805389828A83ECFAE493F573
:10072500F0A3C8C582C8CCC583CCE0A3C8C582C820
:10073500CCC583CCB5F004600280E27FFFB5F00242
:100745000F2240027F012289828A83ECFAE0F5F0CC
:10075500A3C8C582C8CCC583CCE0A3C8C582C8CC14
:10076500C583CCB5F0D560D380E389828A83ECFA62
:10077500E0F5F0A3C8C582C8CCC583CCE493A3C873
:10078500C582C8CCC583CCB5F0B160AF80E288F036
:10079500ED2402B4040050A3F582EB2402B4040056
:0B07A5005099232345822390068E7399
:1011E200020BD1E493A3F8E493A34003F68001F247
:1011F20008DFF48029E493A3F85407240CC8C3330E
:10120200C4540F4420C8834004F456800146F6DFDC
:10121200E4800B01020408102040809015D5E47E82
:10122200019360BCA3FF543F30E509541FFEE493D1
:10123200A360010ECF54C025E060A840B8E493A398
:10124200FAE493A3F8E493A3C8C582C8CAC583CAC3
:10125200F0A3C8C582C8CAC583CADFE9DEE780BE7B
:0116200000C9
:1007B000BC000BBE0029EF8DF084FFADF022E4CC2D
:1007C000F875F008EF2FFFEE33FEEC33FCEE9DECF6
:1007D000984005FCEE9DFE0FD5F0E9E4CEFD22ED3C
:1007E000F8F5F0EE8420D21CFEADF075F008EF2F86
:1007F000FFED33FD4007985006D5F0F222C398FD77
:050800000FD5F0EA2213
:0C080500E0FCA3E0FDA3E0FEA3E0FF2266
:0C081100ECF0A3EDF0A3EEF0A3EFF0225A
:00000001FF
