:08079F0090001BEEF0A3EFF047
:1007A70090001BE0FEA3E0FFD3EF9400EE9400401F
:1007B7004290001E74C7F090001EE0FFEFD3940034
:1007C700402190001D7401F090001DE0FFEFD394CD
:1007D70000400890001DE014F080ED90001EE0142A
:1007E700F080D490001CE024FFF090001BE034FF61
:0307F700F080ADE2
:0107FA0022DC
:100A0400900034EFF0C2A7C2A6C2A5900034E0FF64
:100A14008F807F017E0012079FD2A77F057E001280
:050A2400079FC2A7229C
:100A2900900035EFF0C2A7D2A6C2A5900035E0FF2D
:100A39008F807F017E0012079FD2A77F057E00125B
:050A4900079FC2A72277
:10037F0090001FEFF0900020EBF0A3EAF0A3E9F05C
:10038F0090001FE0FFEFD3940F504190001FE0FF4C
:10039F00EF540FFFEF2480FF120A04900020E0FBC0
:1003AF00A3E0FAA3E0F91206D0FFEF605F90002000
:1003BF00E0FBA3E0FAA3E0F91206D0FF120A29909E
:1003CF000021E475F0011206E980D02290001FE0B1
:1003DF00FFEF540FFFEF24C0FF120A04900020E03C
:1003EF00FBA3E0FAA3E0F91206D0FFEF601E900026
:1003FF0020E0FBA3E0FAA3E0F91206D0FF120A29CE
:0D040F00900021E475F0011206E980D02272
:100AC2007F38120A047F0C120A047F06120A047F7E
:0A0AD20001120A047F80120A0422B8
:10041C002050656368696E20536369656E6365205F
:10042C00002020202057454C434F4D4521202020B3
:10043C002000556E6C6F636B003C004368616E6707
:10044C00652050617373776F726400200050617384
:10045C007320576F72643A202000202020205745CB
:10046C004C434F4D4521004572726F722030312143
:10047C0000496E7075742050617373576F72643AD3
:10048C00004572726F72203031004E6577205061DA
:10049C007373576F72643A002020202020204F4B3A
:0C04AC0021004572726F72203032210076
:100A8B00410000064A00100808080808080000008A
:070A9B000041000100C1024F
:1002B7007F01120A04900026E4F0900000E0FF7E20
:1002C70000EF2402FFEE3400FE900026E0FD7C00E4
:1002D700C3ED9FEE6480F8EC648098502890002668
:1002E700E0FF120987EF2430FF900027EFF090001E
:1002F70027E0FF120A297FE87E03120AA79000264B
:10030700E004F080B57FE87E03120AA7120AC27FD5
:10031700E87E03120AA790000DE4F090000FE4F0C6
:1003270090000EE4F012010D1201E290001AEFF0B6
:1003370090000DE0FFEF120715035900035E01035C
:100347006302036803036D04037205037706000065
:10035700032F1209B580D11208E580CC12073B8024
:10036700C7120ADC80C2120B0B80BD12091D80B8B0
:070377001208A980B380B158
:01037E00225C
:1009B500120AC27BFF7A04791C7F0012037F7BFF3A
:1009C5007A04792D7F1012037F1201E2EFB4FF083C
:0909D50090000D7401F080F12284
:1008E5007F01120A047BFF7A04793E7F0012037FA1
:1008F5007BFF7A0479457F0F12037F7BFF7A0479AA
:10090500477F1012037F7BFF7A0479577F1F1203FD
:080915007F90000D7402F02236
:10073B0090001AE0FFEF640B604790001AE0FFEFA8
:10074B006410600A90001AE0FFEF64137045B20268
:10075B002002177BFF7A0479457F0F12037F7BFF03
:10076B007A0479577F1F12037F227BFF7A04795714
:10077B007F0F12037F7BFF7A0479457F1F12037F64
:10078B002220020790000D7403F02290000D7405D7
:04079B00F0C2022284
:100ADC0090000D7404F090000CE4F0120AC27BFF3D
:0A0AEC007A0479597F0012037F227B
:100B0B00C20312000330010690000D7406F0C201FF
:010B1B0022B7
:10091D0090000FE0FFEF120715093C000940010997
:10092D004402094803094C040950050000095312FB
:10093D000A6F22120B1C22120B3D22120855221295
:07094D000A4E221204B82239
:1008A90012065E300022120AC27BFF7A0479667F43
:1008B9000012037FC2A27F607EEA120AA77F607ED0
:1008C900EA120AA7D2A2800E120AC27BFF7A047921
:0C08D900737F0012037F90000DE4F022FA
:100A6F007F01120A047BFF7A04797D7F0012037FD6
:0C0A7F0090000F7401F090000CE4F022D5
:100B1C00C20312000330010890000F7402F0C201EE
:010B2C0022A6
:0A0B3D0012065E90000F7403F02210
:1008550020003790000EE0FFEFC394035021900075
:100865000EE004F0120AC27BFF7A04798D7F001234
:10087500037F7F207E4E120AA790000FE4F022909E
:10088500000EE4F090000DE4F022120AC27BFF7A1C
:100895000479967F0012037F90000CE4F090000F1E
:0408A5007404F022C5
:100A4E00D20312000330011890000F7405F0C2019A
:100A5E007F01120A047BFF7A0479A47F0012037FC0
:010A6E002265
:1004B80090000CE0FF900000EFF0900001E0FD7F5D
:1004C800001209DE7F647E00120AA7900000E0FD9A
:1004D8007F011209DE7F647E00120AA7900037E4CC
:1004E800F0900000E0FF900037E0FEEEC39F504E12
:1004F800900037E0FF74022FF582E43400F583E0C2
:10050800FF900037E0FE74102EF582E43400F58386
:10051800EFF0900037E0FFEF2402FF900037E0FE95
:1005280074022EF582E43400F583E0FD1209DE7FC3
:10053800647E00120AA7900037E004F080A39000C0
:080548000FE4F090000DE4F057
:010550002288
:10010D007F00120987900001EFF0900001E0FFEFF2
:10011D0070759000017401F07D017F001209DE7F82
:10012D00647E00120AA77D067F011209DE7F647EC0
:10013D0000120AA7900038E4F0900000E0FF900054
:10014D0038E0FEEEC39F503F900038E0FFEF2402F1
:10015D00FF7D081209DE900038E0FF74022FF58252
:10016D00E43400F583E0FF900038E0FE74102EF5C6
:10017D0082E43400F583EFF07F647E00120AA790CD
:10018D000038E004F080B27F00120987900001EF83
:10019D00F07F01120987900000EFF0900038E4F035
:1001AD00900000E0FF900038E0FEEEC39F502590D8
:1001BD000038E0FFEF2402FF120987900038E0FEBF
:1001CD0074102EF582E43400F583EFF0900038E0E2
:0401DD0004F080CCDE
:0101E10022FB
:1000030090001AE0FFEF640B70030200E590001A02
:10001300E0FFEFC3940A505F90001AE0FF90000CDA
:10002300E0FE74022EF582E43400F583EFF09000D5
:100033000CE004F07FC0120A04900039E4F0900051
:100043000CE0FF900039E0FEEEC39F502A20030727
:100053007F2A120A298018900039E0FF74022FF5D5
:1000630082E43400F583E0FFEF2430FF120A299085
:100073000039E004F080C790001AE0FFEF640A60E3
:100083000302010C90000CE0FFEF600890000CE00D
:1000930014F0800590000DE4F07FC0120A04900074
:1000A30039E4F090000CE0FF900039E0FEEEC39FCE
:1000B300502A2003077F2A120A298018900039E06A
:1000C300FF74022FF582E43400F583E0FFEF243060
:1000D300FF120A29900039E004F080C77F20120A3A
:1000E300292290000CE0FFEF701D90000DE4F07FDB
:1000F30001120A047BFF7A0479AE7F0012037F7F2B
:09010300107E27120AA722D20186
:01010C0022D0
:10065E00900029E4F090000CE0FF900000E0FEEE28
:10066E006F705C900028E4F0900000E0FF9000288E
:10067E00E0FEEEC39F504A900028E0FF74022FF573
:10068E0082E43400F583E0FF900028E0FE74102E23
:10069E00F582E43400F583E0FEEE6F6005C20022C1
:1006AE008002D200900028E0FF74022FF582E4341D
:1006BE0000F58374FFF0900028E004F080AA22C2B7
:0106CE00002B
:0106CF002208
:040AA20041003B00D4
:100AA70090002AEEF0A3EFF090002A74FF75F0FF94
:0B0AB7001206FFAFF0FEEF4E70EE22C3
:1001E20090003AE4F075900FE590640F70030202FC
:1001F200AB7FE87E03120AA7E590640F7003020248
:10020200B175900FAF90EF120715021C0702240B75
:10021200022C0D02340E0000023A90003B7401F0F1
:10022200801690003B7402F0800E90003B7403F045
:10023200800690003B740DF07590F0AF90EF1207BE
:1002420015025370025FB00268D00271E000000232
:100252008790003BE0FF90003BEFF0802890003B4E
:10026200E02403F0801F90003BE02406F08016900B
:10027200003BE0FFEFB4020690003B74F7F0900001
:100282003BE02409F090003AE0FFC3EF648094B2AF
:10029200501DE59064F060177FE87E03120AA79074
:1002A200003AE004F080DE800690003B74FFF0909C
:0402B200003BE0FF2E
:0102B6002225
:1009540090002D7401F090002DE0FFEFD39400403F
:100964002190002C7402F090002CE0FFEFD394004F
:10097400400890002CE014F080ED90002DE014F07D
:0209840080D41D
:01098600224E
:100AF600D2A0120954D2A1120954C2A0120954C29A
:050B0600A112095422B8
:100B2D00C2A0120954D2A1120954D2A01209542202
:0505DD00900023EFF087
:1005E200900024E4F0900025E4F0900024E4F090E0
:1005F2000024E0FFEFC394085035900023E0FFEFA2
:10060200C41313135401FFEF24FF92A0900023E0C0
:10061200FFEF25E0FF900023EFF0120954D2A11260
:100622000954C2A1120954900024E004F080C0D2FF
:10063200A0120954D2A130A01B900025E004F09032
:100642000025E0FFEFD394C840ECC2A11209547F09
:0B065200002280E2C2A11209547F01C7
:01065D00227A
:1007FB0090002EE4F090002FE4F0D2A01209549058
:10080B00002EE4F090002EE0FFEFC394085035D299
:10081B00A112095490002FE0FFEF25E0FF90002F6D
:10082B00EFF090002FE0FFA2A0E433FEEF4EFF901D
:10083B00002FEFF0120954C2A112095490002EE0C0
:09084B0004F080C090002FE0FFD2
:010854002281
:1009DE00900030EFF0900031EDF0120AF67FA01289
:1009EE0005DD900030E0FF1205DD900031E0FF12D2
:0609FE0005DD120B2D22A5
:05098700900032EFF0CA
:10098C00120AF67FA01205DD900032E0FF1205DDA1
:10099C00120AF67FA11205DD1207FB900033EFF06F
:0809AC00120B2D900033E0FF57
:0109B4002220
:03000000020551A5
:0C055100787FE4F6D8FD75812002059843
:1006D000BB010689828A83E0225002E722BBFE0228
:0906E000E32289828A83E493225B
:1006E900C5F0F8A3E028F0C5F0F8E582158270029C
:0606F9001583E038F02239
:1006FF00A3F8E0C5F025F0F0E582158270021583AE
:06070F00E0C838F0E8220A
:10071500D083D082F8E4937012740193700DA3A373
:1007250093F8740193F5828883E473740293686087
:06073500EFA3A3A380DF87
:10055D000202B7E493A3F8E493A34003F68001F2FB
:10056D0008DFF48029E493A3F85407240CC8C3339F
:10057D00C4540F4420C8834004F456800146F6DF6E
:10058D00E4800B0102040810204080900A8BE47E69
:10059D00019360BCA3FF543F30E509541FFEE49363
:1005AD00A360010ECF54C025E060A840B8E493A32A
:1005BD00FAE493A3F8E493A3C8C582C8CAC583CA55
:1005CD00F0A3C8C582C8CAC583CADFE9DEE780BE0D
:010AA600004F
:00000001FF
